:100000000C942A000C9447000C9447000C94470071
:100010000C9447000C9447000C9447000C94470044
:100020000C9447000C9447000C9403010C94470077
:100030000C944C070C9447000C9447000C94470018
:100040000C94E5070C9447000C9447000C9447006F
:100050000C94470011241FBECFE5D8E0DEBFCDBF12
:1000600010E0A0E6B0E0ECE6F2E102C005900D92EF
:10007000A83EB107D9F711E0A8EEB0E001C01D928B
:10008000AF33B107E1F70E94C0080C9434090C9417
:100090000000882319F0813021F402C0379A0895B6
:1000A00037980895982F87B1807F87B987B1862BBD
:1000B00087B9992319F0913021F402C0369A089536
:1000C00036980895882319F0813021F402C0339ABC
:1000D00008953398089596B1987F96B996B1982B64
:1000E00096B9089586B182958170089534980895DF
:1000F0003E9A089524B130E045B1942F80E0282B3A
:10010000392BC90108958630E8F490E0FC01EE0F28
:10011000FF1FE80FF91FDF01AA0FBB1FA651BF4F3A
:100120008D919C911197892B69F011961C921E92CA
:1001300015961C92159713961C92EE0FFF1FE45113
:10014000FF4F10820895CF93DF93EC012091E900D7
:100150002630F0F4822F90E0FC01EE0FFF1FE80F35
:10016000F91FEE0FFF1FDF01A651BF4F1196DC9361
:10017000CE936F5F13966C931397E451FF4F4083B8
:1001800015961C92159714962C932F5F2093E900D7
:10019000DF91CF9108951F93CF93DF938091E80073
:1001A000813069F5EAEEF0E080819181892B51F090
:1001B000838181508383882329F485818F5F8583A0
:1001C00082818383369681E0EE30F80769F7EF018C
:1001D000A49710E08D81882361F0E881F981099569
:1001E0008D8181508D838A81882319F4812F0E940B
:1001F00083001F5F2696163069F71092E800DF91A2
:10020000CF911F9108951F920F920FB60F92112454
:100210008F9381E08093E8008F910F900FBE0F9035
:100220001F9018958FB78F778FBF80E00E94390895
:10023000089583E00E94390881E06DE70E948308F9
:100240008FB780688FBF08951F938FB78F778FBF49
:1002500010E0812F0E9483001F5F1630D1F70E94AB
:100260008C0882E00E94400880E00E94390881E00A
:100270006DE70E94830882E00E9460081F91089544
:10028000382FE82FE695E695E6956623B1F06130C4
:1002900041F5F0E0EE0FFF1FE953FF4F0190F081B1
:1002A000E02D2081377081E090E002C0880F991F17
:1002B0003A95E2F7282B20830895F0E0EE0FFF1F18
:1002C000E953FF4F0190F081E02D2081377081E0EC
:1002D00090E002C0880F991F3A95E2F7809582233B
:1002E00080830895EF92FF921F93CF93DF9310E0E6
:1002F000C0E0D0E051E0E52EF12C212F2695269587
:100300002695812F90E0FC01E857FF4FE081E13016
:1003100031F0E130C8F0E23009F049C02EC0E22FE0
:10032000F0E0EE0FFF1FE153FF4F0190F081E02D51
:10033000208187709070A70102C0440F551F8A95D5
:10034000E2F7242B208333C0E22FF0E0EE0FFF1FF3
:10035000E153FF4F0190F081E02D20818770907074
:10036000A70102C0440F551F8A95E2F7CA01809584
:1003700082238083812F61E018C0E22FF0E0EE0F2E
:10038000FF1FE153FF4F0190F081E02D2081877026
:100390009070A70102C0440F551F8A95E2F7CA0169
:1003A000809582238083812F60E00E9440011F5F3F
:1003B0002196C032D10509F0A0CFDF91CF911F91D6
:1003C000FF90EF900895282FE82FE695E695E695A3
:1003D000F0E0EE0FFF1FE154FF4F0190F081E02DA0
:1003E000808190E0277002C0959587952A95E2F765
:1003F00081700895E82FF0E0EE0FFF1FE954FF4FE2
:100400000190F081E02D60830895E82FF0E0EE0F79
:10041000FF1FE155FF4F0190F081E02D808108958D
:100420001F9380910E018330A9F1843028F481302C
:10043000C9F0823020F50CC0853009F46AC08530DF
:10044000A0F1863009F47CC0873009F0CEC09BC093
:1004500080E690E060E040E00E947406813009F0A0
:10046000C6C00AC085E690E060E048E00E947406DD
:10047000813009F0BCC082E080930E01B8C08AE6EA
:1004800090E061E040E00E947406813009F0AFC066
:1004900083E0F2CF81E790E061E048E00E947406DB
:1004A000813009F0A4C084E0E7CF809136018093C9
:1004B00029018091370180932A0180913B0180932B
:1004C0002E0180913C0180932F0180913101809316
:1004D00024018091320180932501883729F08238E8
:1004E00019F48091300102C08091AB008093230108
:1004F0008FE091E0609123010E9449048FE091E038
:1005000060E044E00E947406813009F070C085E02C
:10051000B3CF809124018C3819F486E790E007C0AE
:10052000863919F488E790E002C08AE790E061E03C
:1005300046E00E947406813009F059C086E09CCFE5
:10054000809129018E3051F480912A018D3019F467
:100550008CE790E009C08FE790E006C080912A0107
:100560008D3049F482E890E060E04CE00E9474062F
:100570008130E9F506C085E890E060E04CE00E943B
:10058000740687E079CF80912E018E30D9F4809166
:100590002F018D3019F48CE790E01AC08FE790E0BE
:1005A00061E04CE00E947406182F813001F5109232
:1005B0000E0186E10E94E301182786E1612F0E9467
:1005C000400115C080912F018D3049F482E890E000
:1005D00061E04CE00E947406813049F406C085E871
:1005E00090E061E04CE00E94740610920E011F91B1
:1005F000089580911A01813009F041C08091A800CE
:100600008A35D1F08B3518F48035C9F505C08436AC
:1006100039F18E36A1F52CC080913E01823311F460
:100620008AE507C08C3311F484E603C0863439F5BB
:100630008EE68093A800089580E58093A8008091BD
:100640003E01809332018837D1F490E190933601D6
:100650008FE08093370190933B0180933C01089594
:1006600080E58093A80080913E0180933001089539
:1006700080E58093A80080913E0180933101089528
:1006800020913E012D30C9F12E3030F42B3069F02D
:100690002C3009F055C018C02F3009F446C02F3057
:1006A000F8F0203109F04CC034C090E0FC01EE0FAE
:1006B000FF1FEE0FFF1FE80FF91FED5CFE4F80E1FB
:1006C00083838FE084830AC090E0FC01EE0FFF1F5C
:1006D000EE0FFF1FE80FF91FED5CFE4F2283089518
:1006E00090E0FC01EE0FFF1FEE0FFF1FE80FF91F58
:1006F000ED5CFE4F8EE08383089590E0FC01EE0FE9
:10070000FF1FEE0FFF1FE80FF91FED5CFE4F248364
:10071000089590E0FC01EE0FFF1FEE0FFF1FE80FA2
:10072000F91FED5CFE4F2383089590E0FC01EE0F6E
:10073000FF1FEE0FFF1FE80FF91FED5CFE4F248334
:10074000089580911B01813021F480E00E944003D4
:10075000089580911C01813011F40E944003089596
:1007600080E061E00E94400181E061E00E94400180
:1007700082E061E00E94400183E061E00E9440016C
:100780000895CF92DF92EF92FF920F931F93DF9322
:10079000CF93CDB7DEB764970FB6F894DEBF0FBE28
:1007A000CDBF19821A821B821C8281E08A8382E07B
:1007B0008B83DE011596E7EDF0E080E101900D926C
:1007C0008150E1F783E08C8300E010E06E01089433
:1007D000C11CD11CF601E00FF11FE0808E2D60E0FE
:1007E0000E94400164E0F62E84E00E94E301882329
:1007F00019F480E090E01DC055E0F52E85E00E94E0
:10080000E301882319F481E090E013C046E0F42E60
:1008100086E00E94E301882319F482E090E009C099
:1008200087E00E94E3018823C9F483E090E037E089
:10083000F32E880F991F880F991FFE013196E80F3C
:10084000F91FE00FF11F14818F2D0E94E30188230F
:10085000D9F38E2D61E00E9440010BC08E2D61E026
:100860000E9440010F5F1F4F0430110509F0B2CF05
:1008700016E1812F64960FB6F894DEBF0FBECDBF90
:10088000CF91DF911F910F91FF90EF90DF90CF906C
:100890000895FC01262F6A3060F0862F6AE00E94DE
:1008A0001409805D8083822F0E941409905D9183DA
:1008B00004C0205D208380E28183128208951F930B
:1008C000182F809115018F5F80931501813021F5DC
:1008D0008DE160E00E9440018EE161E00E944001F4
:1008E0008CE161E00E944001612F6295617088E1B6
:1008F0000E944001612F62956695617089E10E94B6
:1009000040011295169516951370612F61708AE15A
:100910000E94400116951AC0833011F58CE161E008
:100920000E944001612F617088E10E944001612FA7
:100930006695617089E10E94400116951695612FB8
:1009400061708AE10E944001169511708BE1612F60
:100950000E9440018CE160E00E94400180E00AC0FA
:10096000853019F48CE161E0F7CF8830B9F7109247
:10097000150181E01F9108950F931F93CF93DF938B
:10098000FC01EC0140E04F5FCE016AE070E00E94A4
:100990002009EB0161157105B1F7CE0133E0880F35
:1009A000991F3A95E1F7CC0FDD1FC80FD91FCF0172
:1009B0006AE070E00E942009C80FD91FCF016AE0E9
:1009C00070E00E942009FB016115710531F7042FC9
:1009D00010E001501040CE016AE070E00E94200952
:1009E000805D0E945F04CE016AE070E00E942009F1
:1009F000EB016115710569F705C080E30E945F0492
:100A00000150104001151105C1F7DF91CF911F91E1
:100A10000F910895CF93DF93EC0103C021960E94BC
:100A20005F0488818823D1F7DF91CF9108951F93C8
:100A3000182F809117018F5F80931701813021F566
:100A40008DE160E00E9440018EE160E00E94400183
:100A50008CE161E00E944001612F6295617088E144
:100A60000E944001612F62956695617089E10E9444
:100A700040011295169516951370612F61708AE1E9
:100A80000E94400116951EC0833029F58CE161E07B
:100A90000E94400180911601813039F5612F61700B
:100AA00088E10E944001612F6695617089E10E9492
:100AB000400116951695612F61708AE10E944001F0
:100AC000169511708BE1612F0E9440018CE160E06E
:100AD0000E9440010AC0853041F48CE161E00E942F
:100AE00040011092170181E001C080E01F9108953C
:100AF0000F931F93CF93DF938C01683098F4660FA8
:100B0000660F660F862F80640E941705C0E0D0E054
:100B1000F801EC0FFD1F80810E945F042196C83010
:100B2000D105B1F782E00E941705DF91CF911F91A7
:100B30000F91089580911401882319F0813089F470
:100B400006C080E00E941705813079F406C081E07C
:100B50000E941705813049F482E08093140180E0FF
:100B600008951092140181E0089580E00895823084
:100B700068F4603158F48295880F880F807C860F66
:100B80008068809319010E941705089580E00895F8
:100B90001F93182F623058F4403148F4883038F4ED
:100BA000862F642F0E94B705812F0E945F041F913A
:100BB0000895CF93DF93EC01623048F4403138F46C
:100BC000862F642F0E94B705CE010E940A05DF918F
:100BD000CF91089580911801853009F450C0863076
:100BE00088F4823009F440C0833030F48823E1F087
:100BF000813009F071C036C08330C1F1843009F012
:100C00006BC036C0883009F44FC0893030F486306C
:100C1000E9F1873009F060C040C0893009F44EC066
:100C20008A3009F059C051C08CE161E00E94400156
:100C30008DE160E00E9440018EE160E00E94400191
:100C400088E160E00E94400189E160E00E9440018B
:100C50008AE160E00E9440018BE160E00E94400177
:100C600081E028C082E026C083E024C084E022C066
:100C700080E20E9417058130A9F585E01BC080E263
:100C80000E941705813071F586E014C080E80E944B
:100C90001705813039F587E00DC080E00E94170507
:100CA000813001F588E006C080EC0E941705813094
:100CB000C9F489E08093180180E0089580E00E94E3
:100CC0001705813079F48AE0F5CF80E10E9417059D
:100CD000813041F48BE0EECF81E0809316011092D9
:100CE0001801089580E00895CF93DF93EC0190916F
:100CF0001301913051F0913018F0923069F50FC026
:100D00000E94EA05813041F507C0862F642F0E94BA
:100D1000B705813009F582E0809313011DC08091F1
:100D20001201FE01E80FF11D80818823A9F00E94C5
:100D30005F04982F813081F4809112018F5F80933E
:100D40001201C80FD11D8881882331F4109212013D
:100D50009093130181E001C080E0DF91CF9108956D
:100D6000882319F0813021F402C06E9A08956E989C
:100D70000895882319F0813021F402C06C9A0895F7
:100D80006C9808959DB19C7F9DB99DB1982B9DB99C
:100D900070989EB186958695982B9EB908959FB1BF
:100DA0008FB9892F0895882319F0813021F402C06A
:100DB0006F9808956F9A0895982F80911F01813040
:100DC00071F0813018F0823011F514C08091320139
:100DD0008837E9F480E480933D0181E008C0809188
:100DE00032018837A1F480E480933D0182E0809352
:100DF0001F010DC080913201883729F48091AB002A
:100E000080933D0104C0823811F410921F01A92F74
:100E1000B0E0FD01EE0FFF1FEE0FFF1FEA0FFB1FFB
:100E2000ED5CFE4F83818E3079F584818D3001F544
:100E3000FD01E05EFE4F8081882339F4809130010E
:100E400080933D0181E080830895813079F4809121
:100E500031018C3811F480EC03C0863919F480E834
:100E600080933D01A05EBE4F1C92089510820895AC
:100E7000809131018C3811F480EC03C0863959F42B
:100E800080E880933D01089584818D3021F4809124
:100E9000300180933D0108951F920F920FB60F927B
:100EA00011248F9381E08093AA008F910F900FBE41
:100EB0000F901F9018951F9380911D018F5F809355
:100EC0001D0110911E01113019F1113020F0123066
:100ED00009F059C03AC082E161E00E94400181E11D
:100EE00061E00E94400180E160E00E94400191E0E9
:100EF00090931A0110921B0110921C0180911D0108
:100F0000873109F040C010921D0190931E013BC033
:100F100080E161E00E94400182E161E00E944001C5
:100F200081E160E00E94400110921A0110931B01C0
:100F300010921C0180911D01873129F410921D012E
:100F400082E080931E0180E01CC080E161E00E948D
:100F5000400181E161E00E94400182E160E00E9485
:100F6000400181E080931C0110921B0110921A0134
:100F700080911D01873121F410921E0110921D01F4
:100F800081E00E94DC068EB180913D019FB18FB956
:100F900090933E011F91089582E161E00E9440011B
:100FA00081E161E00E94400180E160E00E94400137
:100FB00080E00E94C20680E00E94B90680E00E94A4
:100FC000D30680E00E94B00608951F920F920FB6DC
:100FD0000F9211248F9381E0809322018F910F90C3
:100FE0000FBE0F901F901895EF92FF920F931F93D3
:100FF0000E947A00A0E0B0E0BC01CD0124EF31E016
:1010000040E050E00E94F5087B018C0180E060E048
:101010000E9452008AE015950795F794E7948A9507
:10102000D1F7B701C8011F910F91FF90EF9008957C
:1010300080912201813061F40E94F4076093AB003B
:101040007093AC008093AD009093AE00109222019B
:1010500008950E94780087E00E946B0080E00E9463
:10106000620080E00E94490080E060E00E9452003F
:10107000089593B7987F93BF93B7982B93BF089524
:10108000813051F0813028F0823061F08330B9F442
:1010900010C083B7877F08C083B7806483BF83B7DE
:1010A000877F05C083B7886083BF83B78F7B83BF8B
:1010B000089583B7886083BF83B7806483BF089532
:1010C000813051F0813028F0823049F0833071F462
:1010D0000AC089B7816005C089B78E7F02C089B711
:1010E000826089BF089589B78D7F89BF089593B7BE
:1010F0009F7E93BF93B79F7D93BF93B78295807F69
:10110000982B93BF0895882319F0813021F402C0F1
:1011100062BF08956CBF089580E060E00E9483087C
:1011200081E060E00E9483080895882321F08130E7
:1011300021F080E0089582B708958CB7089581B5B5
:10114000886081BD089591B5987F91BD91B5982B28
:1011500091BD0895A895089581B5886081BD81B538
:10116000806181BD81B5877F81BD089581B5887F0C
:1011700081BD81B5866081BD81B5886081BD0895DE
:101180000E9472010E9429080E94CC070E94B608A2
:101190000E9424018BE597E060E044E10E94A300F7
:1011A00089EF92E060E044E10E94A30081EA93E0CD
:1011B00060E044E10E94A30080E192E060E04AE048
:1011C0000E94A30088E198E060E044E10E94A3004F
:1011D0008AEA98E060E044E60E94A3000E941901B8
:1011E0000E945B070E94CB00FDCF629FD001739FDE
:1011F000F001829FE00DF11D649FE00DF11D929FB3
:10120000F00D839FF00D749FF00D659FF00D9927F1
:10121000729FB00DE11DF91F639FB00DE11DF91F15
:10122000BD01CF0111240895991B79E004C0991FD5
:10123000961708F0961B881F7A95C9F78095089530
:10124000AA1BBB1B51E107C0AA1FBB1FA617B707EC
:1012500010F0A61BB70B881F991F5A95A9F7809508
:0C1260009095BC01CD010895F894FFCFDB
:10126C00746D703A00524D313A004C696768743AAB
:10127C0000524D323A004D004E002000544C004CB0
:10128C002000542000202000020202020101010172
:10129C000101010101010201010101010101010131
:1012AC000101010101010101500B0128000000396D
:1012BC00003600330030003B003800350032003976
:1012CC00003600330030003B003800350032003A65
:1012DC0000370034003100070809230405062301F8
:0812EC00020373630072650048
:00000001FF
