:100000000C942A000C9447000C9447000C94470071
:100010000C9447000C9447000C9447000C94470044
:100020000C9447000C9447000C9403010C94470077
:100030000C94C1060C9447000C9447000C944700A4
:100040000C9457070C9447000C9447000C944700FD
:100050000C94470011241FBECFE5D8E0DEBFCDBF12
:1000600010E0A0E6B0E0E2EFF0E102C005900D92F2
:10007000A23EB107D9F711E0A2EEB0E001C01D9297
:10008000AE32B107E1F70E9411080C9477080C9486
:100090000000882319F0813021F402C0379A0895B6
:1000A00037980895982F87B1807F87B987B1862BBD
:1000B00087B9992319F0913021F402C0369A089536
:1000C00036980895882319F0813021F402C0339ABC
:1000D00008953398089596B1987F96B996B1982B64
:1000E00096B9089586B182958170089534980895DF
:1000F0003E9A089524B130E045B1942F80E0282B3A
:10010000392BC90108958430E8F490E0FC01EE0F2A
:10011000FF1FE80FF91FDF01AA0FBB1FAC51BF4F34
:100120008D919C911197892B69F011961C921E92CA
:1001300015961C92159713961C92EE0FFF1FEA510D
:10014000FF4F10820895CF93DF93EC012091E300DD
:100150002430F0F4822F90E0FC01EE0FFF1FE80F37
:10016000F91FEE0FFF1FDF01AC51BF4F1196DC935B
:10017000CE936F5F13966C931397EA51FF4F4083B2
:1001800015961C92159714962C932F5F2093E300DD
:10019000DF91CF9108951F93CF93DF938091E20079
:1001A000813069F5E4EEF0E080819181892B51F096
:1001B000838181508383882329F485818F5F8583A0
:1001C00082818383369680E0EC3FF80769F7EF0180
:1001D000689710E08D81882361F0E881F9810995A5
:1001E0008D8181508D838A81882319F4812F0E940B
:1001F00083001F5F2696143069F71092E200DF91AA
:10020000CF911F9108951F920F920FB60F92112454
:100210008F9381E08093E2008F910F900FBE0F903B
:100220001F9018958FB78F778FBF80E00E94AB0724
:10023000089583E00E94AB0781E06DE70E94F50717
:100240008FB780688FBF08951F938FB78F778FBF49
:1002500010E0812F0E9483001F5F1430D1F70E94AD
:10026000FE0782E00E94B20780E00E94AB0781E0B7
:100270006DE70E94F50782E00E94D2071F91089562
:10028000382FE82FE695E695E6956623B1F06130C4
:1002900041F5F0E0EE0FFF1FEE53FF4F0190F081AC
:1002A000E02D2081377081E090E002C0880F991F17
:1002B0003A95E2F7282B20830895F0E0EE0FFF1F18
:1002C000EE53FF4F0190F081E02D2081377081E0E7
:1002D00090E002C0880F991F3A95E2F7809582233B
:1002E00080830895EF92FF921F93CF93DF9310E0E6
:1002F000C0E0D0E051E0E52EF12C212F2695269587
:100300002695812F90E0FC01E857FF4FE081E13016
:1003100031F0E130C8F0E23009F049C02EC0E22FE0
:10032000F0E0EE0FFF1FE653FF4F0190F081E02D4C
:10033000208187709070A70102C0440F551F8A95D5
:10034000E2F7242B208333C0E22FF0E0EE0FFF1FF3
:10035000E653FF4F0190F081E02D2081877090706F
:10036000A70102C0440F551F8A95E2F7CA01809584
:1003700082238083812F61E018C0E22FF0E0EE0F2E
:10038000FF1FE653FF4F0190F081E02D2081877021
:100390009070A70102C0440F551F8A95E2F7CA0169
:1003A000809582238083812F60E00E9440011F5F3F
:1003B0002196C032D10509F0A0CFDF91CF911F91D6
:1003C000FF90EF900895282FE82FE695E695E695A3
:1003D000F0E0EE0FFF1FE654FF4F0190F081E02D9B
:1003E000808190E0277002C0959587952A95E2F765
:1003F00081700895E82FF0E0EE0FFF1FEE54FF4FDD
:100400000190F081E02D60830895E82FF0E0EE0F79
:10041000FF1FE655FF4F0190F081E02D8081089588
:100420001F938091FC008330A9F1843028F481303F
:10043000C9F0823020F50CC0853009F461C08530E8
:10044000A0F1863009F473C0873009F0C5C092C0AE
:1004500080E690E060E040E00E945906813009F0BB
:10046000BDC00AC085E690E060E048E00E94590601
:10047000813009F0B3C082E08093FC00AFC08AE60F
:1004800090E061E040E00E945906813009F0A6C08A
:1004900083E0F2CF81E790E061E048E00E945906F6
:1004A000813009F09BC084E0E7CF809126018093E2
:1004B00019018091270180931A0180912B0180936B
:1004C0001E0180912C0180931F0180912101809356
:1004D00014016091200160931301809122018093A7
:1004E00015018DEF90E00E942E048DEF90E060E00A
:1004F00044E00E945906813009F070C085E0BCCF0D
:1005000080911401823019F486E790E007C08330AF
:1005100019F488E790E002C08AE790E061E046E0E5
:100520000E945906813009F059C086E0A5CF80911C
:1005300019018E3051F480911A018D3019F48CE735
:1005400090E009C08FE790E006C080911A018D30DD
:1005500049F482E890E060E04CE00E945906813066
:10056000E9F506C085E890E060E04CE00E9459069D
:1005700087E082CF80911E018E30D9F480911F01D7
:100580008D3019F48CE790E01AC08FE790E061E0BD
:100590004CE00E945906182F813001F51092FC00A2
:1005A00086E10E94E301182786E1612F0E94400145
:1005B00015C080911F018D3049F482E890E061E020
:1005C0004CE00E945906813049F406C085E890E06D
:1005D00061E04CE00E9459061092FC001F910895C2
:1005E00090910901913081F5809100018130C1F035
:1005F000813028F08230D9F0833031F51FC08091EE
:100600002D01882319F4909300010895813011F48D
:1006100082E003C08230C1F483E08093000108953A
:100620001092000180912D01809322010895109273
:10063000000180912D018093200108951092000106
:1006400080912D0180932101089520912D012D305D
:10065000C9F12E3030F42B3069F02C3009F055C040
:1006600018C02F3009F446C02F30F8F0203109F0BF
:100670004CC034C090E0FC01EE0FFF1FEE0FFF1FD7
:10068000E80FF91FED5DFE4F80E183838FE08483E7
:100690000AC090E0FC01EE0FFF1FEE0FFF1FE80FF6
:1006A000F91FED5DFE4F2283089590E0FC01EE0FEF
:1006B000FF1FEE0FFF1FE80FF91FED5DFE4F8EE0ED
:1006C0008383089590E0FC01EE0FFF1FEE0FFF1FE4
:1006D000E80FF91FED5DFE4F2483089590E0FC01C3
:1006E000EE0FFF1FEE0FFF1FE80FF91FED5DFE4F2E
:1006F0002383089590E0FC01EE0FFF1FEE0FFF1F14
:10070000E80FF91FED5DFE4F2483089580910A01E3
:10071000813021F480E00E942503089580910B012F
:10072000813011F40E942503089580E061E00E9469
:10073000400181E061E00E94400182E061E00E94AE
:10074000400183E061E00E9440010895CF92DF9272
:10075000EF92FF920F931F93DF93CF93CDB7DEB746
:1007600064970FB6F894DEBF0FBECDBF19821A8210
:100770001B821C8281E08A8382E08B83DE011596D6
:10078000E2EDF0E080E101900D928150E1F783E02D
:100790008C8300E010E06E010894C11CD11CF601AE
:1007A000E00FF11FE0808E2D60E00E94400164E0C8
:1007B000F62E84E00E94E301882319F480E090E0A3
:1007C0001DC055E0F52E85E00E94E301882319F451
:1007D00081E090E013C046E0F42E86E00E94E30141
:1007E000882319F482E090E009C087E00E94E301C9
:1007F0008823C9F483E090E037E0F32E880F991F37
:10080000880F991FFE013196E80FF91FE00FF11FC5
:1008100014818F2D0E94E3018823D9F38E2D61E08E
:100820000E9440010BC08E2D61E00E9440010F5FCD
:100830001F4F0430110509F0B2CF16E1812F6496E5
:100840000FB6F894DEBF0FBECDBFCF91DF911F91E1
:100850000F91FF90EF90DF90CF900895FC01262F2D
:100860006A3060F0862F6AE00E945708805D8083BE
:10087000822F0E945708905D918304C0205D2083E1
:1008800080E28183128208951F93182F80910401C2
:100890008F5F80930401813021F58DE160E00E943B
:1008A00040018EE161E00E9440018CE161E00E9424
:1008B0004001612F6295617088E10E944001612FC3
:1008C00062956695617089E10E94400112951695C6
:1008D00016951370612F61708AE10E944001169590
:1008E0001AC0833011F58CE161E00E944001612F54
:1008F000617088E10E944001612F6695617089E115
:100900000E94400116951695612F61708AE10E9440
:100910004001169511708BE1612F0E9440018CE11E
:1009200060E00E94400180E00AC0853019F48CE14B
:1009300061E0F7CF8830B9F71092040181E01F9190
:1009400008950F931F93CF93DF93FC01EC0140E0D8
:100950004F5FCE016AE070E00E946308EB01611511
:100960007105B1F7CE0133E0880F991F3A95E1F791
:10097000CC0FDD1FC80FD91FCF016AE070E00E94C5
:100980006308C80FD91FCF016AE070E00E946308B6
:10099000FB016115710531F7042F10E00150104083
:1009A000CE016AE070E00E946308805D0E9444040A
:1009B000CE016AE070E00E946308EB0161157105E9
:1009C00069F705C080E30E944404015010400115FE
:1009D0001105C1F7DF91CF911F910F910895CF932A
:1009E000DF93EC0103C021960E9444048881882390
:1009F000D1F7DF91CF9108951F93182F80910601B1
:100A00008F5F80930601813021F58DE160E00E94C7
:100A100040018EE160E00E9440018CE161E00E94B3
:100A20004001612F6295617088E10E944001612F51
:100A300062956695617089E10E9440011295169554
:100A400016951370612F61708AE10E94400116951E
:100A50001EC0833029F58CE161E00E944001809145
:100A60000501813039F5612F617088E10E944001F4
:100A7000612F6695617089E10E9440011695169577
:100A8000612F61708AE10E944001169511708BE11F
:100A9000612F0E9440018CE160E00E9440010AC089
:100AA000853041F48CE161E00E9440011092060122
:100AB00081E001C080E01F9108950F931F93CF93B1
:100AC000DF938C01683098F4660F660F660F862FEF
:100AD00080640E94FC04C0E0D0E0F801EC0FFD1F30
:100AE00080810E9444042196C830D105B1F782E08C
:100AF0000E94FC04DF91CF911F910F910895809186
:100B00000301882319F0813089F406C080E00E9437
:100B1000FC04813079F406C081E00E94FC0481303D
:100B200049F482E08093030180E00895109203016C
:100B300081E0089580E00895823068F4603158F4CF
:100B40008295880F880F807C860F806880930801CB
:100B50000E94FC04089580E008951F93182F6230CE
:100B600058F4403148F4883038F4862F642F0E94BE
:100B70009C05812F0E9444041F910895CF93DF9319
:100B8000EC01623048F4403138F4862F642F0E9423
:100B90009C05CE010E94EF04DF91CF9108958091D2
:100BA0000701853009F450C0863088F4823009F49A
:100BB00040C0833030F48823E1F0813009F071C007
:100BC00036C08330C1F1843009F06BC036C0883044
:100BD00009F44FC0893030F48630E9F1873009F0EC
:100BE00060C040C0893009F44EC08A3009F059C055
:100BF00051C08CE161E00E9440018DE160E00E9403
:100C000040018EE160E00E94400188E160E00E94C6
:100C1000400189E160E00E9440018AE160E00E94B9
:100C200040018BE160E00E94400181E028C082E049
:100C300026C083E024C084E022C080E20E94FC043D
:100C40008130A9F585E01BC080E20E94FC04813060
:100C500071F586E014C080E80E94FC04813039F50B
:100C600087E00DC080E00E94FC04813001F588E03F
:100C700006C080EC0E94FC048130C9F489E08093B6
:100C8000070180E0089580E00E94FC04813079F43F
:100C90008AE0F5CF80E10E94FC04813041F48BE0D2
:100CA000EECF81E08093050110920701089580E066
:100CB0000895CF93DF93EC0190910201913051F0B0
:100CC000913018F0923069F50FC00E94CF05813045
:100CD00041F507C0862F642F0E949C05813009F5DD
:100CE00082E0809302011DC080910101FE01E80FA6
:100CF000F11D80818823A9F00E944404982F81303F
:100D000081F4809101018F5F80930101C80FD11D93
:100D10008881882331F4109201019093020181E0CF
:100D200001C080E0DF91CF910895882319F08130D0
:100D300021F402C06E9A08956E980895882319F0E0
:100D4000813021F402C06C9A08956C9808959DB189
:100D50009C7F9DB99DB1982B9DB970989EB1869549
:100D60008695982B9EB908959FB18FB9892F0895C4
:100D7000882319F0813021F402C06F9808956F9A8A
:100D800008951F920F920FB60F9211248F9381E056
:100D90008093A9008F910F900FBE0F901F90189510
:100DA0000F931F9300910E0180910C018F5F809330
:100DB0000C0110910D01113011F1113020F01230A1
:100DC00009F054C038C082E161E00E94400181E135
:100DD00061E00E94400180E160E00E94400191E0FA
:100DE0009093090110920A0110920B0180910C015D
:100DF0008731E1F510920C0190930D0137C080E12D
:100E000061E00E94400182E161E00E94400181E1D5
:100E100060E00E9440011092090110930A011092B3
:100E20000B0180910C01873109F510920C0182E0D1
:100E300080930D011BC080E161E00E94400181E1CF
:100E400061E00E94400182E160E00E94400181E097
:100E500080930B0110920A011092090180910C01FC
:100E6000873121F410920D0110920C018EB18FB1D7
:100E70000FB980932D011F910F91089582E161E0D8
:100E80000E94400181E161E00E94400180E160E058
:100E90000E94400180E00E94A70680E00E949E061A
:100EA00080E00E94B80680E00E94950608951F9297
:100EB0000F920FB60F9211248F9381E0809312014D
:100EC0008F910F900FBE0F901F901895EF92FF9289
:100ED0000F931F930E947A00A0E0B0E0BC01CD0107
:100EE00024EF31E040E050E00E9438087B018C01A3
:100EF00080E060E00E9452008AE015950795F79423
:100F0000E7948A95D1F7B701C8011F910F91FF901F
:100F1000EF90089580911201813061F40E9466077C
:100F200060930E0170930F01809310019093110153
:100F30001092120108950E94780087E00E946B00D1
:100F400080E00E94620080E00E94490080E060E052
:100F50000E945200089593B7987F93BF93B7982B40
:100F600093BF0895813051F0813028F0823061F0D4
:100F70008330B9F410C083B7877F08C083B780641B
:100F800083BF83B7877F05C083B7886083BF83B77C
:100F90008F7B83BF089583B7886083BF83B78064E6
:100FA00083BF0895813051F0813028F0823049F0BC
:100FB000833071F40AC089B7816005C089B78E7F1C
:100FC00002C089B7826089BF089589B78D7F89BFC4
:100FD000089593B79F7E93BF93B79F7D93BF93B7B9
:100FE0008295807F982B93BF0895882319F08130D4
:100FF00021F402C062BF08956CBF089580E060E0F4
:101000000E94F50781E060E00E94F50708958823BB
:1010100021F0813021F080E0089582B708958CB7E7
:1010200008950E9472010E949B070E943E070E9441
:10103000240180ED96E060E044E10E94A30080EF8F
:1010400092E060E044E10E94A30086E893E060E063
:1010500044E10E94A30080E192E060E04AE00E9447
:10106000A3000E9419010E94D0060E94CB00FDCF70
:10107000629FD001739FF001829FE00DF11D649F7C
:10108000E00DF11D929FF00D839FF00D749FF00D08
:10109000659FF00D9927729FB00DE11DF91F639FA9
:1010A000B00DE11DF91FBD01CF0111240895991B59
:1010B00079E004C0991F961708F0961B881F7A954F
:1010C000C9F780950895AA1BBB1B51E107C0AA1F51
:1010D000BB1FA617B70710F0A61BB70B881F991FD9
:1010E0005A95A9F780959095BC01CD010895F89483
:0210F000FFCF30
:1010F200746D703A00524D313A004C696768743A27
:1011020000524D323A004D004E002000544C004C2B
:1011120020005420002020000202020201010101ED
:1011220001010101010102010101010101010101AC
:1011320001010101010101010B01390036003300F7
:1011420030003B00380035003200390036003300F1
:1011520030003B003800350032003A0037003400DE
:101162003100070809230405062301020373630003
:021172007265A4
:00000001FF
