:100000000C942A000C9447000C9447000C94470071
:100010000C9447000C9447000C9447000C94470044
:100020000C9447000C9447000C9403010C94470077
:100030000C9446070C9447000C9447000C9447001E
:100040000C94DF070C9447000C9447000C94470075
:100050000C94470011241FBECFE5D8E0DEBFCDBF12
:1000600010E0A0E6B0E0E0E6F2E102C005900D92FB
:10007000A63EB107D9F711E0A6EEB0E001C01D928F
:10008000AE33B107E1F70E94BA080C942E090C9424
:100090000000882319F0813021F402C0379A0895B6
:1000A00037980895982F87B1807F87B987B1862BBD
:1000B00087B9992319F0913021F402C0369A089536
:1000C00036980895882319F0813021F402C0339ABC
:1000D00008953398089596B1987F96B996B1982B64
:1000E00096B9089586B182958170089534980895DF
:1000F0003E9A089524B130E045B1942F80E0282B3A
:10010000392BC90108958630E8F490E0FC01EE0F28
:10011000FF1FE80FF91FDF01AA0FBB1FA851BF4F38
:100120008D919C911197892B69F011961C921E92CA
:1001300015961C92159713961C92EE0FFF1FE65111
:10014000FF4F10820895CF93DF93EC012091E700D9
:100150002630F0F4822F90E0FC01EE0FFF1FE80F35
:10016000F91FEE0FFF1FDF01A851BF4F1196DC935F
:10017000CE936F5F13966C931397E651FF4F4083B6
:1001800015961C92159714962C932F5F2093E700D9
:10019000DF91CF9108951F93CF93DF938091E60075
:1001A000813069F5E8EEF0E080819181892B51F092
:1001B000838181508383882329F485818F5F8583A0
:1001C00082818383369681E0EC30F80769F7EF018E
:1001D000A49710E08D81882361F0E881F981099569
:1001E0008D8181508D838A81882319F4812F0E940B
:1001F00083001F5F2696163069F71092E600DF91A4
:10020000CF911F9108951F920F920FB60F92112454
:100210008F9381E08093E6008F910F900FBE0F9037
:100220001F9018958FB78F778FBF80E00E9433089B
:10023000089583E00E94330881E06DE70E947D0805
:100240008FB780688FBF08951F938FB78F778FBF49
:1002500010E0812F0E9483001F5F1630D1F70E94AB
:10026000860882E00E943A0880E00E94330881E01C
:100270006DE70E947D0882E00E945A081F91089550
:10028000382FE82FE695E695E6956623B1F06130C4
:1002900041F5F0E0EE0FFF1FEA53FF4F0190F081B0
:1002A000E02D2081377081E090E002C0880F991F17
:1002B0003A95E2F7282B20830895F0E0EE0FFF1F18
:1002C000EA53FF4F0190F081E02D2081377081E0EB
:1002D00090E002C0880F991F3A95E2F7809582233B
:1002E00080830895EF92FF921F93CF93DF9310E0E6
:1002F000C0E0D0E051E0E52EF12C212F2695269587
:100300002695812F90E0FC01E857FF4FE081E13016
:1003100031F0E130C8F0E23009F049C02EC0E22FE0
:10032000F0E0EE0FFF1FE253FF4F0190F081E02D50
:10033000208187709070A70102C0440F551F8A95D5
:10034000E2F7242B208333C0E22FF0E0EE0FFF1FF3
:10035000E253FF4F0190F081E02D20818770907073
:10036000A70102C0440F551F8A95E2F7CA01809584
:1003700082238083812F61E018C0E22FF0E0EE0F2E
:10038000FF1FE253FF4F0190F081E02D2081877025
:100390009070A70102C0440F551F8A95E2F7CA0169
:1003A000809582238083812F60E00E9440011F5F3F
:1003B0002196C032D10509F0A0CFDF91CF911F91D6
:1003C000FF90EF900895282FE82FE695E695E695A3
:1003D000F0E0EE0FFF1FE254FF4F0190F081E02D9F
:1003E000808190E0277002C0959587952A95E2F765
:1003F00081700895E82FF0E0EE0FFF1FEA54FF4FE1
:100400000190F081E02D60830895E82FF0E0EE0F79
:10041000FF1FE255FF4F0190F081E02D808108958C
:100420001F9380910C018330A9F1843028F481302E
:10043000C9F0823020F50CC0853009F46AC08530DF
:10044000A0F1863009F47CC0873009F0CEC09BC093
:1004500080E690E060E040E00E946E06813009F0A6
:10046000C6C00AC085E690E060E048E00E946E06E3
:10047000813009F0BCC082E080930C01B8C08AE6EC
:1004800090E061E040E00E946E06813009F0AFC06C
:1004900083E0F2CF81E790E061E048E00E946E06E1
:1004A000813009F0A4C084E0E7CF809135018093CA
:1004B0002801809136018093290180913A0180932F
:1004C0002D0180913B0180932E018091300180931A
:1004D00023018091310180932401882329F0813008
:1004E00019F480912F0102C08091AA00809322010B
:1004F0008DE091E0609122010E9443048DE091E043
:1005000060E044E00E946E06813009F070C085E032
:10051000B3CF80912301823019F486E790E007C0C1
:10052000833019F488E790E002C08AE790E061E048
:1005300046E00E946E06813009F059C086E09CCFEB
:10054000809128018E3051F4809129018D3019F469
:100550008CE790E009C08FE790E006C08091290108
:100560008D3049F482E890E060E04CE00E946E0635
:100570008130E9F506C085E890E060E04CE00E943B
:100580006E0687E079CF80912D018E30D9F480916D
:100590002E018D3019F48CE790E01AC08FE790E0BF
:1005A00061E04CE00E946E06182F813001F5109238
:1005B0000C0186E10E94E301182786E1612F0E9469
:1005C000400115C080912E018D3049F482E890E001
:1005D00061E04CE00E946E06813049F406C085E877
:1005E00090E061E04CE00E946E0610920C011F91B9
:1005F0000895909119019130E1F5809110018130B9
:10060000C1F0813028F0823039F1833091F52BC070
:1006100080913D01882319F4909310010895813051
:1006200011F482E003C0823021F583E08093100151
:1006300008951092100180913D018093310188232B
:10064000C1F490E1909335018FE08093360190934F
:100650003A0180933B0108951092100180913D0171
:1006600080932F0108951092100180913D01809395
:100670003001089520913D012D30C9F12E3030F424
:100680002B3069F02C3009F055C018C02F3009F418
:1006900046C02F30F8F0203109F04CC034C090E053
:1006A000FC01EE0FFF1FEE0FFF1FE80FF91FEE5CBE
:1006B000FE4F80E183838FE084830AC090E0FC01D9
:1006C000EE0FFF1FEE0FFF1FE80FF91FEE5CFE4F4E
:1006D0002283089590E0FC01EE0FFF1FEE0FFF1F35
:1006E000E80FF91FEE5CFE4F8EE08383089590E0E3
:1006F000FC01EE0FFF1FEE0FFF1FE80FF91FEE5C6E
:10070000FE4F2483089590E0FC01EE0FFF1FEE0FD3
:10071000FF1FE80FF91FEE5CFE4F2383089590E062
:10072000FC01EE0FFF1FEE0FFF1FE80FF91FEE5C3D
:10073000FE4F2483089580911A01813021F480E0D6
:100740000E943A03089580911B01813011F40E94A8
:100750003A03089580E061E00E94400181E061E099
:100760000E94400182E061E00E94400183E061E07C
:100770000E9440010895CF92DF92EF92FF920F9373
:100780001F93DF93CF93CDB7DEB764970FB6F8947E
:10079000DEBF0FBECDBF19821A821B821C8281E090
:1007A0008A8382E08B83DE011596E6EDF0E080E13E
:1007B00001900D928150E1F783E08C8300E010E01E
:1007C0006E010894C11CD11CF601E00FF11FE080FE
:1007D0008E2D60E00E94400164E0F62E84E00E94CD
:1007E000E301882319F480E090E01DC055E0F52E68
:1007F00085E00E94E301882319F481E090E013C0B2
:1008000046E0F42E86E00E94E301882319F482E09A
:1008100090E009C087E00E94E3018823C9F483E0E7
:1008200090E037E0F32E880F991F880F991FFE0183
:100830003196E80FF91FE00FF11F14818F2D0E94F0
:10084000E3018823D9F38E2D61E00E9440010BC0A3
:100850008E2D61E00E9440010F5F1F4F0430110593
:1008600009F0B2CF16E1812F64960FB6F894DEBF7F
:100870000FBECDBFCF91DF911F910F91FF90EF90F1
:10088000DF90CF900895FC01262F6A3060F0862F0C
:100890006AE00E940E09805D8083822F0E940E090B
:1008A000905D918304C0205D208380E28183128269
:1008B00008951F93182F809114018F5F8093140166
:1008C000813021F58DE160E00E9440018EE161E020
:1008D0000E9440018CE161E00E944001612F62951D
:1008E000617088E10E944001612F62956695617098
:1008F00089E10E9440011295169516951370612F9B
:1009000061708AE10E94400116951AC0833011F58A
:100910008CE161E00E944001612F617088E10E94DA
:100920004001612F6695617089E10E944001169532
:100930001695612F61708AE10E9440011695117031
:100940008BE1612F0E9440018CE160E00E94400138
:1009500080E00AC0853019F48CE161E0F7CF88307F
:10096000B9F71092140181E01F9108950F931F931E
:10097000CF93DF93FC01EC0140E04F5FCE016AE0D2
:1009800070E00E941A09EB0161157105B1F7CE0103
:1009900033E0880F991F3A95E1F7CC0FDD1FC80FA0
:1009A000D91FCF016AE070E00E941A09C80FD91F51
:1009B000CF016AE070E00E941A09FB016115710520
:1009C00031F7042F10E001501040CE016AE070E0D2
:1009D0000E941A09805D0E945904CE016AE070E00D
:1009E0000E941A09EB016115710569F705C080E3E2
:1009F0000E9459040150104001151105C1F7DF9103
:100A0000CF911F910F910895CF93DF93EC0103C015
:100A100021960E94590488818823D1F7DF91CF91D4
:100A200008951F93182F809116018F5F80931601F0
:100A3000813021F58DE160E00E9440018EE160E0AF
:100A40000E9440018CE161E00E944001612F6295AB
:100A5000617088E10E944001612F62956695617026
:100A600089E10E9440011295169516951370612F29
:100A700061708AE10E94400116951EC0833029F5FD
:100A80008CE161E00E94400180911501813039F5CF
:100A9000612F617088E10E944001612F669561704D
:100AA00089E10E94400116951695612F61708AE1D7
:100AB0000E944001169511708BE1612F0E94400148
:100AC0008CE160E00E9440010AC0853041F48CE175
:100AD00061E00E9440011092160181E001C080E0B7
:100AE0001F9108950F931F93CF93DF938C0168306C
:100AF00098F4660F660F660F862F80640E941105BA
:100B0000C0E0D0E0F801EC0FFD1F80810E94590485
:100B10002196C830D105B1F782E00E941105DF911E
:100B2000CF911F910F91089580911301882319F09F
:100B3000813089F406C080E00E941105813079F48B
:100B400006C081E00E941105813049F482E0809363
:100B5000130180E008951092130181E0089580E070
:100B60000895823068F4603158F48295880F880FB8
:100B7000807C860F8068809318010E94110508957B
:100B800080E008951F93182F623058F4403148F4E4
:100B9000883038F4862F642F0E94B105812F0E947F
:100BA00059041F910895CF93DF93EC01623048F40C
:100BB000403138F4862F642F0E94B105CE010E9487
:100BC0000405DF91CF91089580911701853009F4D4
:100BD00050C0863088F4823009F440C0833030F44D
:100BE0008823E1F0813009F071C036C08330C1F153
:100BF000843009F06BC036C0883009F44FC08930AA
:100C000030F48630E9F1873009F060C040C08930A7
:100C100009F44EC08A3009F059C051C08CE161E03E
:100C20000E9440018DE160E00E9440018EE160E0A1
:100C30000E94400188E160E00E94400189E160E09B
:100C40000E9440018AE160E00E9440018BE160E087
:100C50000E94400181E028C082E026C083E024C0D9
:100C600084E022C080E20E9411058130A9F585E070
:100C70001BC080E20E941105813071F586E014C02E
:100C800080E80E941105813039F587E00DC080E0D1
:100C90000E941105813001F588E006C080EC0E94B9
:100CA00011058130C9F489E08093170180E008952F
:100CB00080E00E941105813079F48AE0F5CF80E16F
:100CC0000E941105813041F48BE0EECF81E08093EA
:100CD000150110921701089580E00895CF93DF93D6
:100CE000EC0190911201913051F0913018F0923056
:100CF00069F50FC00E94E405813041F507C0862FD9
:100D0000642F0E94B105813009F582E080931201C1
:100D10001DC080911101FE01E80FF11D8081882323
:100D2000A9F00E945904982F813081F4809111011B
:100D30008F5F80931101C80FD11D8881882331F402
:100D4000109211019093120181E001C080E0DF91C7
:100D5000CF910895882319F0813021F402C06E9A52
:100D600008956E980895882319F0813021F402C007
:100D70006C9A08956C9808959DB19C7F9DB99DB122
:100D8000982B9DB970989EB186958695982B9EB9A3
:100D900008959FB18FB9892F0895882319F0813064
:100DA00021F402C06F9808956F9A0895982F80914A
:100DB0001E01813071F0813018F0823011F514C0BD
:100DC000809131018823E9F480E480933C0181E043
:100DD00008C0809131018823A1F480E480933C0114
:100DE00082E080931E010DC080913101882329F497
:100DF0008091AA0080933C0104C0813011F41092CC
:100E00001E01A92FB0E0FD01EE0FFF1FEE0FFF1F27
:100E1000EA0FFB1FEE5CFE4F83818E3079F58481F3
:100E20008D3001F5FD01E15EFE4F8081882339F4AC
:100E300080912F0180933C0181E08083089581306F
:100E400079F480913001823011F480EC03C083305A
:100E500019F480E880933C01A15EBE4F1C92089576
:100E60001082089580913001823011F480EC03C02B
:100E7000833059F480E880933C01089584818D305B
:100E800021F480912F0180933C0108951F920F92CD
:100E90000FB60F9211248F9381E08093A9008F9158
:100EA0000F900FBE0F901F9018951F9380911C01FB
:100EB0008F5F80931C0110911D01113019F11130C9
:100EC00020F0123009F059C03AC082E161E00E947E
:100ED000400181E161E00E94400180E160E00E9408
:100EE000400191E09093190110921A0110921B0198
:100EF00080911C01873109F040C010921C01909331
:100F00001D013BC080E161E00E94400182E161E09F
:100F10000E94400181E160E00E94400110921901AD
:100F200010931A0110921B0180911C01873129F442
:100F300010921C0182E080931D0180E01CC080E1C2
:100F400061E00E94400181E161E00E94400182E194
:100F500060E00E94400181E080931B0110921A0121
:100F60001092190180911C01873121F410921D010A
:100F700010921C0181E00E94D6068EB180913C0146
:100F80009FB18FB990933D011F91089582E161E077
:100F90000E94400181E161E00E94400180E160E047
:100FA0000E94400180E00E94BC0680E00E94B306DF
:100FB00080E00E94CD0680E00E94AA0608951F925C
:100FC0000F920FB60F9211248F9381E0809321012D
:100FD0008F910F900FBE0F901F901895EF92FF9278
:100FE0000F931F930E947A00A0E0B0E0BC01CD01F6
:100FF00024EF31E040E050E00E94EF087B018C01DB
:1010000080E060E00E9452008AE015950795F79411
:10101000E7948A95D1F7B701C8011F910F91FF900E
:10102000EF90089580912101813061F40E94EE07D4
:101030006093AA007093AB008093AC009093AD00D6
:101040001092210108950E94780087E00E946B00B1
:1010500080E00E94620080E00E94490080E060E041
:101060000E945200089593B7987F93BF93B7982B2F
:1010700093BF0895813051F0813028F0823061F0C3
:101080008330B9F410C083B7877F08C083B780640A
:1010900083BF83B7877F05C083B7886083BF83B76B
:1010A0008F7B83BF089583B7886083BF83B78064D5
:1010B00083BF0895813051F0813028F0823049F0AB
:1010C000833071F40AC089B7816005C089B78E7F0B
:1010D00002C089B7826089BF089589B78D7F89BFB3
:1010E000089593B79F7E93BF93B79F7D93BF93B7A8
:1010F0008295807F982B93BF0895882319F08130C3
:1011000021F402C062BF08956CBF089580E060E0E2
:101110000E947D0881E060E00E947D080895882398
:1011200021F0813021F080E0089582B708958CB7D6
:10113000089581B5886081BD089591B5987F91BD6E
:1011400091B5982B91BD0895A895089581B58860B3
:1011500081BD81B5806181BD81B5877F81BD0895E5
:1011600081B5887F81BD81B5866081BD81B588608C
:1011700081BD08950E9472010E9423080E94C60743
:101180000E94B0080E94240185E597E060E044E1F8
:101190000E94A30089EF92E060E044E10E94A30076
:1011A0008BE993E060E044E10E94A30080E192E0DB
:1011B00060E04AE00E94A30082E198E060E044E140
:1011C0000E94A30084EA98E060E044E60E94A30045
:1011D0000E9419010E9455070E94CB00FDCF629F1B
:1011E000D001739FF001829FE00DF11D649FE00D1F
:1011F000F11D929FF00D839FF00D749FF00D659F80
:10120000F00D9927729FB00DE11DF91F639FB00D7E
:10121000E11DF91FBD01CF0111240895991B79E04B
:1012200004C0991F961708F0961B881F7A95C9F776
:1012300080950895AA1BBB1B51E107C0AA1FBB1FC5
:10124000A617B70710F0A61BB70B881F991F5A9552
:10125000A9F780959095BC01CD010895F894FFCF32
:10126000746D703A00524D313A004C696768743AB7
:1012700000524D323A004D004E002000544C004CBC
:10128000200054200020200002020202010101017E
:10129000010101010101020101010101010101013D
:1012A00001010101010101010B01280000003900C9
:1012B0003600330030003B00380035003200390082
:1012C0003600330030003B003800350032003A0071
:1012D0003700340031000708092304050623010202
:0612E00003736300726558
:00000001FF
